:02000004080CE6
:1000000060180020C1010C088B470C08E9360C0869
:1000100089470C0869080C08176C0C0800000000E0
:10002000000000000000000000000000294F0C0844
:1000300069120C080000000049480C08FD4F0C082C
:10004000DB010C08DB010C08DB010C08DB010C08F0
:10005000DB010C08DB010C08DB010C08DB010C08E0
:10006000DB010C08DB010C08DB010C08DB010C08D0
:10007000DB010C08DB010C08DB010C08DB010C08C0
:10008000DB010C08DB010C08DB010C08DB010C08B0
:10009000DB010C08DB010C08DB010C08DB010C08A0
:1000A000DB010C08DB010C08DB010C08DB010C0890
:1000B000DB010C08DB010C08DB010C08DB010C0880
:1000C000DB010C08DB010C08DB010C08DB010C0870
:1000D000DB010C0871550C08DB010C08DB010C0876
:1000E000DB010C08DB010C08DB010C08DB010C0850
:1000F000DB010C08DB010C08DB010C08DB010C0840
:10010000DB010C08DB010C08DB010C08DB010C082F
:10011000DB010C08DB010C0895500C08DB010C0816
:10012000DB010C08DB010C08DB010C08DB010C080F
:10013000DB010C08DB010C08DB010C08DB010C08FF
:10014000DB010C08DB010C08DB010C0819480C086A
:10015000DB010C08DB010C08DB010C08DB010C08DF
:10016000DB010C08DB010C0831480C0825480C08A1
:10017000DB010C083D480C08DB010C08DB010C0816
:10018000DB010C08DB010C08DB010C08DB010C08AF
:10019000DB010C08DB010C08DB010C08DB010C089F
:1001A000DB010C08DB010C08DB010C08DFF80CD0CC
:1001B00000F006FB0048004785750C086018002019
:1001C0000648804706480047FEE7FEE7FEE7FEE7F1
:1001D000FEE7FEE7FEE7FEE7FEE7FEE739500C0824
:1001E000AD010C08034611F8012B00F8012B002A81
:1001F000F9D1184670472DE9FE4F804681EA030089
:10020000C00F0C46009021F0004123F00045B8EBF0
:100210000200A94105D24046214690461C460B46A5
:10022000024623F00040104347D0270DC7F30A00D1
:10023000C3F30A510290401A019040286BDAC3F3CD
:10024000130040F4801B0098924620B10023D2EBAB
:10025000030A63EB0B0B01985946C0F1400250466C
:1002600000F0F0F906460D4650465946019A00F056
:1002700008FA10EB08006141002487EA115284EA71
:10028000E7731A4340D0009A62B3019A012A4FEAF9
:10029000075215DC001B61EB02014FF0004202EA3D
:1002A0000752CDE90042001C41F5801132462B4631
:1002B00000F008FA03B0BDE8F08F40462146F9E7A8
:1002C000001B61EB0201001C41F5801300185B412B
:1002D0002018A2F5001747EB030140EAD570B619C4
:1002E0006D4111E06D084FEA360645EAC0754FEAE8
:1002F0000752001B61EB0201001C41F58011490807
:100300004FEA30000019514132462B4603B0BDE898
:10031000F04F00F0C8B90098012240000023D0EB54
:10032000020263EBE073009821464FEAE074B8EBF9
:10033000000061EB0401E9E783F000435BE781F033
:10034000004158E72DE9FE4F81EA030404F0004420
:1003500021F0004100944FF0000B23F0004350EADD
:1003600001045ED052EA03045BD0C3F30A54C1F324
:100370000A552C44A4F2F3340194A0FB0254C1F3B7
:10038000130141F48011C3F3130343F4801301FB01
:10039000024400FB034E840A970A44EA815447EA68
:1003A0008357A4FB076802958D0A05FB07854FEA72
:1003B000932C04FB0C542705029D4FEA065847EA8C
:1003C0001637B5EB08056EEB070C870E920E47EA61
:1003D000811742EA8312A7FB0201B6EB0B0164EB23
:1003E00000042B0D43EA0C335E1844EB1C50DA4634
:1003F0005146E7FB0201C5F313044FEA0B3343EA0E
:1004000014534FEA0432019C43EA0603A4F10C049E
:100410000294009CCDE900B400F054F903B0BDE8AB
:10042000F08F00200146F9E72DE9F04D81EA030441
:1004300004F0004B21F0004514464FF0000A23F071
:10044000004150EA050220D054EA01021DD0C5F354
:100450000A570246C5F31303C1F31300C1F30A564A
:1004600040F4801543F48013A7EB0608101BD64612
:1004700008F2FD3873EB050002D308F1010801E032
:1004800092185B41B8F1000F03DA00200146BDE885
:10049000F08D00204FF48011064684460EE0171BB5
:1004A00073EB050705D3121B63EB050306434CEA08
:1004B000010C49084FEA300092185B4150EA0107ED
:1004C000EDD152EA030012D082EA040083EA05016A
:1004D000084305D0101BAB4106D20122002306E0E1
:1004E00000224FF0004302E06FF0010253101AEBBC
:1004F00006004CEB085110EB0A0041EB0B01BDE884
:10050000F04D00F0D0B80EB540F233410291002119
:10051000CDE900110A460B4600F0D4F803B000BD47
:1005200070B5C1F30A5201F000450024C1F3130174
:1005300040F2FF3341F480119A4201DA002070BD8D
:1005400040F233439A42A2F2334203DC524200F0BB
:1005500088F800E090402C43F1D0404270BDC1F3D8
:100560000A5210B5C1F3130140F2FF3341F4801178
:100570009A4201DA002010BD40F233439A42A2F2BF
:10058000334203DC524200F06CF810BD904010BDC5
:1005900000F0004230F000400AD0C10D01F560715A
:1005A000C0F3160042EA0151C208400711437047E8
:1005B00000200146704730B50B460146002020223E
:1005C000012409E021FA02F59D4205D303FA02F560
:1005D000491B04FA02F52844151EA2F10102F1DCC0
:1005E00030BD2DE9F05F0546002092469B468846C7
:1005F0000646814640241BE028464146474622469F
:1006000000F02FF853465A46C01A914110D31146B4
:100610001846224600F016F82D1A67EB01084F46DF
:1006200022460120002100F00DF817EB00094E4191
:10063000201EA4F10104DFDC484631462A46434629
:10064000BDE8F09F202A04DB203A00FA02F10020E6
:1006500070479140C2F1200320FA03F31943904000
:100660007047202A04DB203A21FA02F0002170476B
:1006700021FA02F3D040C2F120029140084319460A
:100680007047202A06DBCB17203A41FA02F043EAF2
:10069000E07306E041FA02F3D040C2F1200291403B
:1006A00008431946704710B5141E73F1000408DAA8
:1006B000401C41F1000192185B411A4301D120F026
:1006C000010010BD2DE9F04D92469B4611B1B1FAE3
:1006D00081F202E0B0FA80F220329046FFF7B2FFDA
:1006E00004460F4640EA0A0041EA0B0153465A46C7
:1006F000084313D0114653EA010019D0C8F1400253
:100700005046FFF7AEFF05460E4650465946424654
:10071000FFF798FF084305D0012004E02046394642
:10072000BDE8F08D0020054346EAE0762C433743D0
:100730000A986305E40AA0EB08000022FD0A44EAD7
:1007400047540A3002D500200146E9E70105101997
:100750006941DDE9084500196941BDE8F04DA2E7AE
:10076000C1F30A52C1F3130140F2FF3341F4801187
:100770009A4202DA00200146704740F233439A421F
:10078000A2F2334202DC5242FFF76BBFFFF75ABFBF
:1007900030B5041E71F1000404DB4FF00044404208
:1007A00064EB0101141E73F1000405DB1C464FF0DD
:1007B0000043524263EB0403994208BF904230BDAC
:1007C000064C074D06E0E06840F0010394E807009E
:1007D00098471034AC42F6D3FFF7ECFC1CE80C0849
:1007E0003CE80C0870B58C1810F8015B15F0070395
:1007F00001D110F8013B2A1106D110F8012B03E0BA
:1008000010F8016B01F8016B5B1EF9D12B0705D4C1
:100810000023521E0DD401F8013BFAE710F8013B0A
:10082000CB1A921C03E013F8015B01F8015B521E26
:10083000F9D5A142D8D3002070BD00001CB54FF4FB
:100840008070012100908DF8041000208DF80600C2
:100850008DF807108DF805006946024802F0ECFE9D
:100860001CBD000000000240FEE770B506461446BD
:100870000D463A2006F02AFFE8B206F04BFF280AA0
:1008800006F048FF06F012FF0CB1002011E006F060
:10089000C3F91D280FD1304600F084F805463B20EF
:1008A00006F014FF06F002FF2E44002CEFD0208843
:1008B00028442080EBE770BD10B503F0E7FF08B1D6
:1008C00000F04AF8BDE81040302000F0A9B831200F
:1008D00000F0A6B80146362000F095B810B50446E1
:1008E00000F0A7F820785C2801D02F2803D1002140
:1008F000642000F0E5F8BDE81040322000F090B828
:1009000070B50E4600210546012401E0641CE4B2E6
:10091000285D5C2813D02F2811D00028F6D10024A0
:100920006818FFF7DBFF002C08D0B44206D041283E
:100930000AD0142806D0422800D1B32070BD641C10
:10094000E4B2EDE7432070BD2146E1E7FF21FFF768
:10095000D7BF682000F03CB810B5222006F0B6FEE4
:10096000322000F082FC06F0A7FE044606F09EFE50
:10097000204610BD2DE9F04106F09EFE064606F029
:100980009BFE054606F098FE044606F095FE0746D7
:1009900006F08CFE46EA052040EA044040EA076083
:1009A000BDE8F08170B50546272006F08FFE06F001
:1009B00083FE0446260007D006F07EFE641E05F87E
:1009C000010B14F0FF04F7D106F070FE304670BD45
:1009D00010B504460C2006F079FE204606F09AFE7B
:1009E000BDE81040FFF7C6BF10B504460A2006F068
:1009F0006DFE204606F08EFE06F05EFE044606F012
:100A000055FE204610BD10B50C4606F05FFE204690
:100A100006F080FE06F04AFEBDE8104006F0FCB885
:100A200010B506F053FE06F041FEBDE8104006F09A
:100A3000F3B870B50546012006F048FE06F03CFE0E
:100A4000432828D22B20FFF7CFFF102823D22F20B6
:100A500006F03CFE002006F05DFE3220FFF7E0FFCE
:100A6000142818D1CF20FFF7BFFF040013D04C206B
:100A7000FFF7AEFF00EB04214C2000F021F85020DE
:100A8000FFF7A6FF00EB0421502000F019F8002129
:100A9000702000F015F82F2006F018FE2C7806E0E4
:100AA00015F8014F5C2C01D02F2C00D100242046DA
:100AB00006F030FE002CF3D1BDE8704006F0F6BD24
:100AC00070B505460C460D2006F000FE284606F0DF
:100AD00021FEE0B206F01EFEC4F3072006F01AFE67
:100AE000C4F3074006F016FE200E06F013FEBDE824
:100AF000704006F0DBBD00002DE9F04188B0012117
:100B0000812003F0CFFE0121080303F0FBFEDFF894
:100B1000C88005221146404602F0CAFD0522062182
:100B2000404602F0C5FD05220721404602F0C0FD07
:100B300002258DF805508DF80450002420278DF8EB
:100B4000064000978DF807406946404602F074FD64
:100B5000402000906946404602F06EFD80200090E3
:100B60006946404602F068FD1020012600908DF88D
:100B700004608DF806406946404602F05DFD8DF840
:100B8000044000978DF807606946144802F054FD50
:100B9000ADF808404FF48270ADF80A00ADF810606F
:100BA0002802ADF812003820ADF81400ADF80C4062
:100BB000ADF8164007200A4CADF81800ADF80E50FD
:100BC00002A9204604F041F90121204604F028F949
:100BD00008B0BDE8F081000000000240001C0240A7
:100BE0000030014010B50B460C0601F07F0202EB0D
:100BF000820100EBC10102D501F58E7101E001F522
:100C00005D710A70DA094A7005F0EBFD002010BD35
:100C10000A4610B5090602F07F0306D503EB8301EF
:100C200000EBC10101F58E7105E002EB820100EBE2
:100C3000C10101F55D7100248C700B70D2094A70FE
:100C400005F0B6FD002010BD10B50A0604D501F070
:100C50007F0105F0E9FE01E005F0C8FE002010BDAF
:100C600070B50D460E0601F07F0404EB840100EB25
:100C7000C10102D501F58E7101E001F55D71ED094B
:100C80000C704D708A60CB7000D0CC80022B01D1EB
:100C900000220A7105F058FD002070BD10B501F06A
:100CA0007F0404EB840100EBC101C1F88833C1F873
:100CB00080230023C1F88C3381F8753381F87443A5
:100CC000C37801F55D71012B00D10A6114F0FF0FAB
:100CD00003D005F0C5FD002010BD05F0C6FCFAE705
:100CE0000069002261F30A12016811430160704734
:100CF0000A4610B5090602F07F0306D503EB83010F
:100D000000EBC10101F58E7105E002EB820100EB01
:100D1000C10101F55D7101248C700B70D2094A701C
:100D200005F086FD002010BD70B511F07F0404EBC6
:100D3000840100EBC1014FF0010581F81D5181F8DC
:100D40001C41C1F82821C1F82C2101F58E714FF00A
:100D50000002C1E9053203D005F082FD002070BD1C
:100D600005F083FCFAE700002DE9F0410646002477
:100D700005F0A3FE074655E0F80751D03069E1B20F
:100D80000369426BCA4006EB810102F001028969E6
:100D900043EAC2128D681540E9071AD00125426B5B
:100DA00005FA04F18A43426306EB8400806985609A
:100DB0001F48E1B20068426830469047F078012849
:100DC00007D134B996F81101042802D1304605F054
:100DD000A9FC280704D506EB8400082580698560F6
:100DE000E80604D506EB8400102580698560680656
:100DF00004D506EB8400402580698560A80704D5EA
:100E000006EB8400022580698560280608D5214606
:100E1000304600F06CF906EB840180208969886017
:100E20007F08641C002FA7D10120BDE8F0810000DD
:100E3000200100202DE9F0410546002405F043FE85
:100E40000746DFF8988043E0F8073FD0E1B2284634
:100E500005F03FFE0646C00725D005EB84000126BD
:100E6000416D8E60E97801290CD1406D016904EB78
:100E7000840005EBC000C1F31201D0F87C23511AA5
:100E8000C0F88C13D8F80000E1B2026828469047F9
:100E9000E878012807D134B995F81101052802D165
:100EA000284605F03FFCB00704D505EB8400022678
:100EB000406D8660300709D5D8F800008168284663
:100EC000884705EB84010820496D88607F08641C11
:100ED000002FB9D10120BDE8F081000020010020E1
:100EE00070B50546C068816921F010018161E8682C
:100EF000066A06F00F0000EB800005EBC004C6F3A5
:100F0000434004F55D74072821D2DFE800F020207B
:100F100004202020150047F6F070064217D0C6F3D3
:100F20000A1632462846E16805F0DBFDE0683044E9
:100F3000E060A069304409E0082205F2CC5128465F
:100F400005F0CFFDA069C6F30A110844A061E86866
:100F5000816941F010018161012070BD38B50446FE
:100F600000208DF8000094F812018DF8000015485B
:100F7000006841692046884720698068E2684FF42C
:100F800000615161A17AD1B1C00718D094F8150160
:100F9000012814D19DF80000032810D1D4F80C01C9
:100FA000016841F001010160D4F80C01016841F0D1
:100FB000030101600448016841F00601016001205D
:100FC00038BD00002001002010ED00E070B504469F
:100FD000006900250126416821F001014160294690
:100FE000204605F021FD0020FF2206E004EB8001F1
:100FF0008B699A60496D8A60401C61788142F5D89E
:1010000021694FF0FF3088612846216966F30F009F
:1010100066F31F40C861216945F00B0048612169F2
:10102000C1F88400216945F00B000861216948641A
:101030002069016821F4FE610160204605F072FB21
:10104000E1684FF480504861034800680169204618
:101050008847012070BD00002001002070B50446C3
:1010600005F050FD0120002384F8120184F81431AA
:101070001A46402510E002EB820104EBC10181F821
:101080001D0181F81C21A1F8222181F81F31C1E93D
:101090004953521CC1F8303161789142EBD800209D
:1010A00010E000EB800104EBC10181F8753381F899
:1010B0007403A1F87A0381F87733C1E9DF53401C48
:1010C000C1F8883361788142EBD8204605F0A8FA50
:1010D000204605F085F90021204605F073FD2046E5
:1010E00005F0BEF92046BDE8704005F077BC2DE95B
:1010F000F0470E4601EB860100EBC1048046D4E9BF
:101100004C01401AD4F8241104F58E74814200D2A7
:101110000846C01C870808EB86091EE0451AA0682F
:10112000A84200D20546E81C8708ABB2F2B240469E
:10113000E16805F05CFDE0682844E060A0692844AF
:10114000A0616169884208D3207801218140D8F8E4
:101150001000426B8A4342630BE0D9F818008069A3
:1011600080B2B84205D9D4E90501814201D20028F4
:10117000D4D10120BDE8F08710B50121CC0520466F
:1011800003F09CFB2046BDE81040002103F096BB15
:10119000034A0146002052680A4200D001207047ED
:1011A00000B0024030B52A4B00241968294A11408A
:1011B00019601968026811431960596B21F0070121
:1011C0005963596B426811435963416841B301291E
:1011D0002DD0022930D00329C16832D00A0101691B
:1011E0004469090224038568214315430D43996B23
:1011F0000D439D638169D963196C6FF30D01196407
:10120000196CC26911431964818C5A6C02F0404216
:101210005A645A6C006A024342EA01425A6430BD81
:10122000C168047D0A02018A09042406DBE7C1685B
:101230000A02018A0904D6E7C1684A010169C902A4
:10124000D1E74A01016944698902E403CBE7000060
:1012500000B00240FCE0FCFF0248016841F00101DF
:101260000160704700B00240704701B5009801E08E
:10127000401E00900028FBD108BD00002DE9F04F72
:101280000D460446AFB00021FE4803F0A9F9002343
:1012900029222946204602F021FF681E81B2661EDF
:1012A0002090B0B200232C2202F018FFA81E81B2B9
:1012B0001590B0B200232E2202F010FFE81E81B27A
:1012C000149000232E22204602F008FF281F81B22E
:1012D0001390A01C80B200232E2202F0FFFE681F94
:1012E00081B224361290B0B200230E2202F0F6FE34
:1012F000A81F81B21F90B0B200230F2202F0EEFEB1
:10130000E81F81B20D90B0B200230F2202F0E6FE7A
:10131000A5F1080081B2761C1E90B0B200230E2207
:1013200002F0DCFEA5F1090081B21990B0B20023F1
:101330000F2202F0D3FEA5F10A0081B2771C0690BD
:10134000B8B200230E2202F0C9FEA5F10B0081B253
:101350000C90B8B200230E2202F0C0FEA5F10C00E2
:1013600081B21190B8B200230E2202F0B7FEA5F1AF
:101370000D0081B2B61C1890B0B200230E2202F00C
:10138000ADFEA5F10E091FFA89F1B8B200230F22B4
:1013900002F0A4FEA5F10F081FFA88F1B0B20023F5
:1013A0000E2202F09BFEA5F1100B1FFA8BF1B0B2DA
:1013B00000230E2202F092FEA5F1110081B20B90E3
:1013C000B0B200230F2202F089FEA5F1120081B213
:1013D000761C0590B0B200230E2202F07FFEA5F12C
:1013E000130A1FFA8AF1B0B200230E2202F076FE31
:1013F000A5F1140081B21B90B0B200230F2202F0BD
:101400006DFEA5F1150081B2761C0490B0B20023E8
:101410000E2202F063FEA5F1160081B20A90B0B26E
:1014200000230E2202F05AFEA5F11707B9B2B0B29E
:1014300000230E2202F052FE781E81B21090B0B24C
:1014400000230E2202F04AFEB81E81B2761C0390E1
:10145000B0B200230D2202F041FEF81E81B20990C5
:10146000B0B200230E2202F039FE381F81B217906D
:10147000B0B200230E2202F031FE04F12A007E1FDA
:101480000790B1B280B200230E2202F027FE701E38
:1014900081B202900798002380B20E2202F01EFE55
:1014A000B01E81B21A900798002380B20E2202F07B
:1014B00015FEF01E81B201900798002380B20F2222
:1014C00002F00CFE301F81B200900798002380B21A
:1014D0000F2202F003FE701F81B2089004F12B006E
:1014E000079080B200230D2202F0F8FDB01F81B2F8
:1014F00016900798002380B20E2202F0EFFDF01F35
:1015000081B20F9004F12C000E9080B200230D22C6
:1015100002F0E4FDA5F1240081B207900E980023AB
:1015200080B20E2202F0DAFDA5F1250081B21D90F5
:101530000E98002380B20E2202F0D0FDA5F1260005
:1015400081B21C900E98002380B20F2202F0C6FDDB
:10155000A5F1270081B221900E98002380B20F22BE
:1015600002F0BCFDA5F1280081B2229004F12D000B
:101570000E9080B200230E2202F0B0FDA5F12900EA
:1015800081B225900E98002380B20E2202F0A6FDB3
:10159000A5F12A0081B227900E98002380B20F2275
:1015A00002F09CFDA5F12B0081B20E98002380B2C1
:1015B0000F2202F093FDA5F12C0081B22A9004F1D4
:1015C0002E000E9080B200230E2202F087FDA5F1BE
:1015D0002D0081B229900E98002380B20E2202F0D5
:1015E0007DFDA5F12E0081B228900E98002380B2D7
:1015F0000F2202F073FDA5F12F0081B2239004F1B8
:101600002F000E9080B200230E2202F067FDA5F19C
:10161000300081B22C900E98002380B20E2202F08E
:101620005DFDA5F1310081B20E98002380B20F223A
:1016300002F054FDA5F1320081B22B900E980023E8
:1016400080B20F2202F04AFDA5F1330081B226904C
:1016500004F130000E9080B200230E2202F03EFD15
:10166000A5F1340081B224900E98002380B20E229E
:1016700002F034FDA5F1350081B20E98002380B24E
:101680000E2201E00093FF0002F028FDA5F13600D4
:1016900081B22E9004F131000E9080B200230D2211
:1016A00002F01CFDA5F1370081B22D900E980023A9
:1016B00080B20E2202F012FD2E98032381B204F1B3
:1016C000480080B20C2202F0D5FC2498002381B29D
:1016D00004F147000E9080B20D2202F0FFFC269824
:1016E000042381B20E980C2280B202F0C3FC23982E
:1016F000032381B204F1460080B20C2202F0BAFC4E
:101700002298002381B204F144000E9080B20E2290
:1017100002F0E4FC2198002381B204F1450080B27C
:101720000D2202F0DBFC1C98002381B20E980D22E2
:1017300080B202F0D3FC1D98002381B20E980C22D7
:1017400080B202F0CBFC0798032381B204F143007E
:101750000E9080B20D2202F08DFC0898002381B219
:101760000E980C2280B202F0B9FC0098032381B2DB
:1017700004F142000E9080B20D2202F07BFC029830
:10178000002381B20E980C2280B202F0A7FC04F173
:1017900041000E90B1B280B202230D2202F06AFC29
:1017A0000998002381B20E980C2280B202F096FCB8
:1017B0000398032381B204F1400080B20D2202F0AD
:1017C00059FC0A98002381B204F13F000E9080B2C8
:1017D0000E2202F083FC0498022381B20E980D229F
:1017E00080B202F047FC0E981FFA8AF180B2022301
:1017F0000C2202F03FFC0B98002381B204F13E0062
:101800000E9080B20D2202F069FC0E981FFA8BF147
:1018100080B202230C2202F02DFC04F13D000E9058
:101820001FFA89F180B203230D2202F023FC0C98E9
:10183000002381B20E980C2280B202F04FFC069871
:10184000032381B204F13C0080B20D2202F012FCAD
:101850000D98022381B204F13B0080B20D2202F008
:1018600009FC1298022381B204F13A000E9080B272
:101870000D2202F0FFFB1498002381B20E980E2275
:1018800080B202F02BFC1598022381B20E980D2233
:1018900080B202F0EFFB0E98002380B20C222946A2
:1018A00002F01CFC2298002381B204F1580080B29F
:1018B000172202F013FC2198002381B204F1550095
:1018C00080B21B2202F00AFC1C98002381B204F1B2
:1018D000540080B21E2202F001FC1D98002381B248
:1018E00004F15300269080B2202202F0F7FB079803
:1018F000002381B22698032280B202F0EFFB079802
:10190000002381B204F168000E9080B20C2202F034
:10191000E5FB0F98002381B22698012280B202F0E5
:10192000DDFB0F98002381B20E980C2280B202F0EA
:10193000D5FB1698032381B20E980C2280B202F0D8
:1019400099FB0198032381B204F16700269080B2CD
:101950000D2202F08FFB04F166000E90B1B280B24E
:1019600000230D2202F0BAFB1798002381B22698BB
:101970000C2280B202F0B2FB0998002381B20E98CB
:101980000D2280B202F0AAFB0398022381B204F177
:1019900065000E9080B20D2202F06CFB0E98B9B279
:1019A00080B202230C2202F065FB0498032381B26B
:1019B00004F1640080B20D2202F05CFB0598032361
:1019C00081B204F163000E9080B20D2202F052FB4E
:1019D0000E981FFA88F180B200230C2202F07EFBE1
:1019E00004F162000E901FFA89F180B203230D22E8
:1019F00002F040FB0C98002381B20E980C2280B2BA
:101A000002F06CFB0698002381B204F161000E9095
:101A100080B20D2202F062FB1998042381B20E9865
:101A20000C2280B202F026FB1298032381B204F14B
:101A3000600080B20C2202F01DFB1598032381B2D6
:101A400004F15F0080B20D2202F014FBA5F1380012
:101A500081B204F17F0080B200230C2202F03EFB31
:101A60002D98032381B204F17E000E9080B20D22E6
:101A700002F000FB2498022381B20E980C2280B25F
:101A800002F0F8FA2B98022381B204F17D0080B2B3
:101A90000C2202F0EFFA2C98002381B204F17C00B2
:101AA0000E9080B20D2202F019FB2398002381B220
:101AB0000E980C2280B202F011FB2898002381B20C
:101AC0000E980D2280B202F009FB2998002381B202
:101AD0000E980C2280B202F001FB2A98022381B2F8
:101AE00004F17B000E9080B20D2202F0C3FA279819
:101AF000032381B20E980C2280B202F0BBFA259823
:101B0000002381B204F1990080B20C2202F0E6FABF
:101B10002298002381B204F1970080B20D2202F0D6
:101B2000DDFA2198002381B204F17A000E9080B290
:101B30000D2202F0D3FA2198002381B204F196001D
:101B400080B20C2202F0CAFA1C98022381B20E98CD
:101B50000C2280B202F08EFA1C98002381B204F1AC
:101B6000940080B20D2202F0B9FA1D98002381B2D0
:101B700004F1930080B20C2202F0B0FA079803231C
:101B800081B204F179000E9080B20D2202F072FA57
:101B90000798002381B204F1920080B20C2202F077
:101BA0009DFA0F98002381B204F19100299080B230
:101BB0000B2202F093FA1698002381B204F18F00F1
:101BC000289080B20C2202F089FA0898002381B292
:101BD00004F17800249080B20D2202F07FFA089878
:101BE000002381B204F18D00279080B20D2202F013
:101BF00075FA0098002381B20E980C2280B202F090
:101C00006DFA0098002381B204F18C00239080B219
:101C10000C2202F063FA0198002381B224980D226D
:101C200080B202F05BFA0198002381B204F18A00CD
:101C30000E9080B20D2202F051FA1A98002381B260
:101C400024980C2280B202F049FA1A98002381B23B
:101C500004F1890080B20D2202F040FA02980023BC
:101C600081B204F17700249080B20D2202F036FA9E
:101C70000298002381B204F1870080B20F2202F0A3
:101C80002DFA2498B1B280B200230C2202F026FA79
:101C900004F18600B1B280B20023102202F01EFAD5
:101CA0001798002381B224981F2280B202F016FAFE
:101CB0000998002381B204F17600249080B21F229B
:101CC00002F00CFA0398002381B22498202280B2FB
:101CD00002F004FA1098002381B22498202280B2E6
:101CE00002F0FCF904F175002690B9B280B200232D
:101CF000212202F0F3F90A98002381B224981322DA
:101D000080B202F0EBF90A98002381B20E980C22FF
:101D100080B202F0E3F90498002381B226981322DE
:101D200080B202F0DBF90498002381B20E980C22F5
:101D300080B202F0D3F91B98002381B226981222B8
:101D400080B202F0CBF91B98002381B20E980D22CD
:101D500080B202F0C3F904F1740024901FFA8AF1F2
:101D600080B20023112202F0B9F90E981FFA8AF10D
:101D700080B200230D2202F0B1F90598002381B250
:101D80002498102280B202F0A9F90598002381B2AC
:101D90000E980E2280B202F0A1F90B98002381B2B6
:101DA00024980E2280B202F099F90B98002381B298
:101DB0000E980E2280B202F091F924981FFA8BF14E
:101DC00080B200230D2202F089F90E981FFA8BF1E0
:101DD00080B200230E2202F081F904F173000E900C
:101DE0001FFA88F180B203230D2202F043F9119803
:101DF000002381B20E980C2280B202F06FF90C9889
:101E0000032381B204F172000E9080B20D2202F021
:101E100031F91E98002381B20E980C2280B202F094
:101E20005DF90D98032381B204F1710080B20D2297
:101E300002F020F91398002381B204F170000E9093
:101E400080B20E2202F04AF91498032381B20E9850
:101E50000D2280B202F00EF90E98002380B20C22FF
:101E6000294602F03BF904F18B000E901FFA88F12D
:101E700080B203230D2202F0FDF81198022381B2F3
:101E80000E980E2280B202F0F5F80698032381B274
:101E900023980D2280B202F0EDF80D98032381B251
:101EA00023980E2280B202F0E5F81398022381B243
:101EB00023980F2280B202F0DDF81598002381B23A
:101EC00027980E2280B202F009F92098002381B2EF
:101ED00028980C2280B202F001F92998002380B2E0
:101EE0000A22294602F0FAF82598002381B204F16B
:101EF000AD0080B2232202F0F1F82298002381B2D3
:101F000004F1AB0080B2272202F0E8F82198002308
:101F100081B204F1A90080B2292202F0DFF81C98F6
:101F2000002381B204F1A80080B22B2202F0D6F87F
:101F30001D98002381B204F1A70080B20D2202F0A7
:101F4000CDF81D98002381B204F1C6000E9080B236
:101F50000D2202F0C3F80798002381B204F1A60015
:101F6000219080B20D2202F0B9F80798002381B2C7
:101F700004F1C70080B20D2202F0B0F80F980023E0
:101F800081B221980C2280B202F0A8F80F980023A9
:101F900081B20E980E2280B202F0A0F816980023AB
:101FA00081B204F1A500219080B20D2202F096F8D2
:101FB0001698002381B20E980E2280B202F08EF89D
:101FC0000898002381B221980D2280B202F086F891
:101FD0000898002381B20E980D2280B202F07EF89C
:101FE0000098002381B221980D2280B202F076F889
:101FF0000098002381B20E980D2280B202F06EF894
:102000000198022381B204F1A400269080B20E222E
:1020100002F030F80198022381B204F1C5000E905D
:1020200080B20E2202F026F80298002381B2269890
:102030000D2280B202F052F80298002381B20E986D
:102040000D2280B202F04AF804F1A3002590B1B24B
:1020500080B202230E2202F00DF804F1C4000E90AB
:10206000B1B280B202230E2202F004F809980023D4
:1020700081B225980D2280B202F030F80998002331
:1020800081B20E980D2280B202F028F80398002346
:1020900081B204F1A200229080B20E2202F01EF85A
:1020A0000398002381B20E980D2280B202F016F838
:1020B0000398002381B222980D2280B202F00EF81C
:1020C0000398002381B204F1C3000E9080B20E2267
:1020D00002F004F81098002381B222980E2280B2F8
:1020E00001F0FCFF1098002381B20E980D2280B2FF
:1020F00001F0F4FF2298B9B280B200230D2201F062
:10210000EDFF0E98B9B280B200230D2201F0E6FF78
:102110000A98002381B204F1A100239080B20E221C
:1021200001F0DCFF0A98002381B204F1C2000E9096
:1021300080B20E2201F0D2FF0498002381B22398CE
:102140000E2280B201F0CAFF0498002381B20E98DB
:102150000E2280B201F0C2FF1B98002381B22398A7
:102160000D2280B201F0BAFF1B98002381B20E98B5
:102170000D2280B201F0B2FF04F1A00021901FFAFD
:102180008AF180B200230E2201F0A8FF0E981FFAF8
:102190008AF180B200230D2201F0A0FF05980023F0
:1021A00081B221980E2280B201F098FF0598002399
:1021B00081B204F1C100249080B20E2201F08EFFA2
:1021C0000B98002381B221980D2280B201F086FF86
:1021D0000B98002381B224980E2280B201F07EFF7A
:1021E00004F19F000E901FFA8BF180B200230E22A3
:1021F00001F074FF24981FFA8BF180B200230E22A5
:1022000001F06CFF21981FFA88F180B200230D22A3
:1022100001F064FF24981FFA88F180B200230D2298
:1022200001F05CFF0E981FFA89F180B204230D22A1
:1022300001F020FF04F1C00024901FFA89F180B260
:1022400000230E2201F04AFF1898032381B224983C
:102250000D2280B201F00EFF0698032381B20E9882
:102260000C2280B201F006FF0698022381B204F12D
:10227000BF0080B20D2201F0FDFE1E98002381B246
:1022800004F1BE0080B20D2201F028FF0D9800235A
:1022900081B20E980E2280B201F020FF0D9800232B
:1022A00081B204F1BC0080B20E2201F017FF1F982A
:1022B000002381B20E982B2280B201F00FFF1298FA
:1022C000002381B22198292280B201F007FF1398E0
:1022D000002381B22398272280B201F0FFFE1498D8
:1022E000002381B22298242280B201F0F7FE1598D3
:1022F000002381B22598222280B201F0EFFE2098BF
:10230000002381B22698202280B201F0E7FE0798D0
:10231000002381B204F1E000259080B2122201F086
:10232000DDFE0F98002381B204F1DF00249080B21B
:10233000162201F0D3FE1698002381B204F1DE00CC
:10234000219080B2182201F0C9FE0898002381B2C2
:1023500004F1DD000E9080B2192201F0BFFE00985A
:10236000002381B20E98092280B201F0B7FE0098D6
:10237000002381B204F1EE00239080B2082201F024
:10238000ADFE0198002381B204F1DC0080B2092285
:1023900001F0A4FE0198002381B22398092280B2A3
:1023A00001F09CFE1A98002381B204F1DB0080B298
:1023B000092201F093FE1A98002381B22398092282
:1023C00080B201F08BFE0298002381B204F1DA00A2
:1023D000229080B2092201F081FE0298002381B28E
:1023E00004F1EF000E9080B2082201F077FE2298EF
:1023F000B1B280B20023082201F070FE0E98B1B293
:1024000080B20023092201F069FE1798002381B2EF
:1024100004F1D900299080B2082201F05FFE1798DC
:10242000002381B204F1E200269080B2162201F06E
:1024300055FE0998002381B204F1D70080B2212211
:1024400001F04CFE0398002381B204F1D6002890DD
:1024500080B2232201F042FE1098002381B204F1E1
:10246000D500229080B2092201F038FE1098002396
:1024700081B204F1E3000E9080B2082201F02EFE3A
:102480001098002381B204F1E800279080B209225D
:1024900001F024FE2298B9B280B20023082201F094
:1024A0001DFE0E98B9B280B20023092201F016FE7B
:1024B0002798B9B280B20023092201F00FFE0A98D2
:1024C000002381B20E98082280B201F007FE049822
:1024D000002381B22698092280B201F0FFFD1B98EB
:1024E000002381B22698082280B201F0F7FD2298DD
:1024F0001FFA8AF180B20023222201F0EFFD059835
:10250000002381B204F1D4000E9080B2232201F0A6
:10251000E5FD0B98002381B20E98232280B201F0D2
:10252000DDFD04F1E10026901FFA8BF180B200235B
:10253000082201F0D3FD22981FFA88F180B200230F
:10254000072201F0CBFD26981FFA88F180B2002304
:10255000082201F0C3FD23981FFA88F180B20023FE
:10256000072201F0BBFD0E981FFA89F180B200230B
:10257000082201F0B3FD26981FFA89F180B20023EA
:10258000082201F0ABFD04F1ED0022901FFA89F161
:1025900080B20023082201F0A1FD1898002381B227
:1025A0000E98082280B201F099FD1898002381B29C
:1025B0002598092280B201F091FD1898002381B27C
:1025C0002298072280B201F089FD1198002381B280
:1025D0000E98082280B201F081FD1198002381B28B
:1025E0002598082280B201F079FD1198002381B26C
:1025F00004F1EC0080B2082201F070FD0C98002379
:1026000081B20E98082280B201F068FD0C98002378
:1026100081B22498092280B201F060FD0C98002359
:1026200081B204F1EB00229080B2082201F056FD45
:102630000698002381B20E98082280B201F04EFD68
:102640000698002381B22498092280B201F046FD49
:102650000698002381B22298072280B201F03EFD45
:102660001998002381B20E98082280B201F036FD3D
:102670001998002381B22498082280B201F02EFD1F
:102680001998002381B22298072280B201F026FD1A
:102690001E98002381B20E98082280B201F01EFD20
:1026A0001E98002381B22198092280B201F016FD04
:1026B0001E98002381B204F1EA0080B2072201F0E3
:1026C0000DFD0D98002381B20E98092280B201F011
:1026D00005FD0D98002381B22198132280B201F0EC
:1026E000FDFC1F98002381B22898102280B201F0CF
:1026F000F5FC1F98002381B204F1E70080B20822A4
:1027000001F0ECFC1298002381B22998042280B2D7
:1027100001F0E4FC1298002381B22198082280B2D3
:1027200001F0DCFC1298002381B22798042280B2C9
:1027300001F0D4FC1398002381B22198082280B2C2
:1027400001F0CCFC1498022381B204F1CE0080B2D7
:10275000272201F08FFC1C98002381B204F20D1097
:102760000E9080B2072201F0B9FC1C98002381B2C0
:1027700004F21D101C9080B2062201F0AFFC1D98DF
:10278000002381B204F20B1080B2092201F0A6FCF2
:102790001D98002381B21C98062280B201F09EFC95
:1027A0000798002381B204F2091080B20B2201F0D5
:1027B00095FC0798002381B204F58E701D9080B2BD
:1027C000072201F08BFC0F98002381B204F5807082
:1027D000079080B2122201F081FC0F98002381B291
:1027E00004F213101C9080B2072201F077FC0F98BE
:1027F000002381B21D98072280B201F06FFC169869
:10280000002381B20798112280B201F067FC16986C
:10281000002381B21C98072280B201F05FFC169859
:10282000002381B204F21B100F9080B2082201F045
:1028300055FC0898002381B207980F2280B201F05E
:102840004DFC0898002381B204F58970079080B28E
:10285000072201F043FC0898002381B20F98082258
:1028600080B201F03BFC0098002381B204F2051015
:10287000089080B2062201F031FC0098002381B25A
:102880000798072280B201F029FC0098002381B24A
:102890000F98082280B201F021FC0198002381B238
:1028A0000898062280B201F019FC0198002381B239
:1028B0000798072280B201F011FC0198002381B231
:1028C00004F58D70019080B2082201F007FC1A987F
:1028D000002381B20898062280B201F0FFFB1A980B
:1028E000002381B20798072280B201F0F7FB1A9803
:1028F000002381B20198082280B201F0EFFB029818
:10290000002381B204F58270089080B2072201F0A2
:10291000E5FB0298002381B20798072280B201F0FC
:10292000DDFB0298002381B20198082280B201F0F9
:10293000D5FB04F1FD000090B1B280B20023142257
:1029400001F0CCFB1C98B1B280B20023062201F04A
:10295000C5FB0198B1B280B20023072201F0BEFB93
:102960001798002381B20098132280B201F0B6FBC1
:102970001798002381B20798072280B201F0AEFBBE
:102980001798002381B20198072280B201F0A6FBBC
:10299000099804F2031681B2B0B20023072201F0B5
:1029A0009DFB0998002381B20798072280B201F0AD
:1029B00095FB0998002381B20198072280B201F0AB
:1029C0008DFB0398002381B2701E019080B2082213
:1029D00001F084FB0398002381B207980E2280B295
:1029E00001F07CFB1098002381B2B0B2062201F006
:1029F00075FB1098002381B204F21510029080B28A
:102A00000B2201F06BFB0098B9B280B200230422C4
:102A100001F064FB0198B9B280B200230A2201F0F0
:102A20005DFB04F20F100390B9B280B200230522BF
:102A300001F054FB04F21910B9B280B2002306224F
:102A400001F04CFB0A98002381B20098102280B25A
:102A500001F044FB0A980B3681B2B0B20023072282
:102A600001F03CFB0A9804F58C7781B2B8B20023E0
:102A7000082201F033FB0498002381B20098102251
:102A800080B201F02BFB0498002381B2B0B2062281
:102A900001F024FB0498002381B2B8B2072201F0B0
:102AA0001DFB1B98002381B204F1FC00019080B251
:102AB000182201F013FB1B98002381B2B8B2072241
:102AC00001F00CFB01981FFA8AF180B20023042266
:102AD00001F004FB04F2011004901FFA8AF180B2A5
:102AE00000230C2201F0FAFA1FFA8AF1B0B2002397
:102AF000062201F0F3FA1FFA8AF1B8B20023072286
:102B000001F0ECFA0598002381B20198042280B20A
:102B100001F0E4FA0598002381B204980C2280B2F7
:102B200001F0DCFA0598002381B2B0B2062201F070
:102B3000D5FA05987F1E81B2B8B20023072201F0B2
:102B4000CDFA0B9804F1FB0A81B21FFA8AF0002338
:102B5000122201F0C3FA0B98002381B2B0B2062210
:102B600001F0BCFA0B98002381B2B8B2072201F041
:102B7000B5FA1FFA8BF11FFA8AF000230C2201F03C
:102B8000ADFAB01F1FFA8BF180B20023042201F0CE
:102B9000A5FA0E981FFA8BF180B20023072201F0EC
:102BA0009DFA1FFA8BF1B8B20023072201F096FAC2
:102BB0001FFA88F11FFA8AF00023112201F08EFA21
:102BC0000E981FFA88F180B20023072201F086FADE
:102BD0007F1E1FFA88F1B8B20023082201F07EFAA6
:102BE0001FFA89F11FFA8AF000230B2201F076FA0E
:102BF000F01F1FFA89F180B20023052201F06EFA5E
:102C00000E981FFA89F180B20023072201F066FABC
:102C10001FFA89F1B8B20023072201F05FFA189871
:102C200004F1FA0881B21FFA88F00023112201F0A2
:102C300055FA1898002381B2B0B2062201F04EFA7C
:102C40001898002381B2B8B2072201F047FA119810
:102C5000002381B21FFA88F0112201F03FFA119887
:102C6000002381B20398062280B201F037FA11984E
:102C7000002381B2B8B2072201F030FA0C98002389
:102C800081B21FFA88F00B2201F028FA0C9804F5A3
:102C9000837881B21FFA88F00023052201F01EFA22
:102CA0000C98F71C81B2B8B200230C2201F016FA7E
:102CB0000698153E81B2B0B20023122201F00EFA3E
:102CC0000698002381B20298072280B201F006FA2A
:102CD0001998002381B2B0B2052201F0FFF91998CA
:102CE000002381B2B01D80B20C2201F0F7F91998CF
:102CF000002381B2B8B20E2201F0F0F91E98761EC0
:102D000081B2B0B20023272201F0E8F90D98002328
:102D100081B2B0B20C2201F0E1F90D98002381B22A
:102D20000898162280B201F0D9F91F98002381B2C9
:102D3000B0B20C2201F0D2F91F98002381B208989A
:102D4000052280B201F0CAF91F98002381B21C98B5
:102D5000072280B201F0C2F91298002381B2B0B20A
:102D6000122201F0BBF91298002381B207980822C1
:102D700080B201F0B3F91398002381B2B0B20422FB
:102D800001F0ACF91398002381B20098072280B2B9
:102D900001F0A4F91398002381B20898072280B2A9
:102DA00001F09CF91398002381B20798082280B2A1
:102DB00001F094F91498761E81B2B0B20023042277
:102DC00001F08CF91498002381B20098062280B299
:102DD00001F084F91498002381B20898052280B28A
:102DE00001F07CF91498002381B20798082280B280
:102DF00001F074F91598002381B2B0B2042201F0F9
:102E00006DF91598002381B20098072280B201F075
:102E100065F91598002381B21FFA88F0022201F0AB
:102E20005DF91598002381B2B8B2092201F056F974
:102E30002098002381B2B0B2012201F04FF920980E
:102E4000002381B20198072280B201F047F920984F
:102E5000002381B2B8B2082201F040F92FB0B8B215
:102E60002946BDE8F04F0023022201F037B90000E7
:102E70002DE9F047002000F09BFF4A486FF07F45A6
:102E800040F28B1690F830004FF47F0440F29F1709
:102E900040F293184FF4C87910B101283DD07BE07F
:102EA0002946084601F09CFB2823FA2231460A20D5
:102EB00001F0E0F82146084601F092FB1022394665
:102EC0001E2001F089F80F2239461E2001F084F8F7
:102ED0000E2239461E2001F07FF82946084601F0EF
:102EE0007FFB14230B223146192001F0C3F8214641
:102EF000084601F075FB1423052231461C2001F021
:102F0000B9F82946002001F06BFB27A23C2140467E
:102F100000F0B4FF27A29C213BE02946084601F0BF
:102F20005FFB2823FA2231460A2001F0A3F821464C
:102F3000084601F055FB102239461E2001F04CF8DE
:102F40000F2239461E2001F047F80E2239461E2076
:102F500001F042F82946084601F042FB14230B22F7
:102F60003146192001F086F82146084601F038FB69
:102F70001423052231461C2001F07CF8294600204C
:102F800001F02EFB0CA23C21404600F077FF09A285
:102F9000CC21484600F072FFBDE8F04750210A20DE
:102FA000FEF76CB920040020D5FDD4DAB9D8BBFAFD
:102FB000000000002E2E2E00504F574552204F4645
:102FC0004600000070B58821084601F009FB4FF467
:102FD000D87417230F220A21204601F04BF88821CC
:102FE0006FF07F4001F0FCFAA51C02230B220A219E
:102FF000284601F03FF8062302220C21284601F062
:1030000039F8062302220C2140F2BB1001F032F8FD
:1030100002231A460E21601D01F02CF802231A46E5
:103020000E21A81D01F026F802230F2212212046AE
:1030300001F020F80B2302221421204601F01AF897
:103040000B230222142140F2BD1001F013F80223D9
:103050000F221F21204601F00DF84FF4DD74A51F4B
:103060001C2322461621284601F078F82A462046DD
:10307000BDE870401C23162101F070B870B588219E
:10308000084601F0ADFA4FF4D87517230F220A2134
:10309000284600F0EFFF88214FF47F4001F0A0FAAE
:1030A000AC1C02230B220A21204600F0E3FF06237A
:1030B00002220C21204600F0DDFF40F2BB14062363
:1030C00002220C21204600F0D5FF02231A460E21D1
:1030D000A01F00F0CFFF02231A460E21E01E00F0D1
:1030E000C9FF02230F221221284600F0C3FF0B2341
:1030F00002221421284600F0BDFF0B2302221421D6
:10310000A01C00F0B7FF02230F221F21284600F069
:10311000B1FF621F1C231921D01E01F01FF81723D5
:103120001B212246201FBDE8704001F017B80000A7
:1031300001490860704700000C3C024070B506462B
:10314000002529B1012927D0022928D04FF4407544
:1031500000F0D2F809281ED1124C206820F44070EB
:103160002060206828432060206820F0F80020605C
:10317000206846F0020108432060206840F4803057
:10318000206000F0B9F8216821F002012160216877
:1031900021F0F801216070BD4FF48075D8E74FF43D
:1031A0000075D5E7103C02400D4909200A68D2039A
:1031B00001D5012070470A68D20601D50620704764
:1031C0000A68D20501D5022070470A6812F0E00FA4
:1031D00001D00720704709688907FBD50820704790
:1031E0000C3C0240174910B5884229D80221002022
:1031F000FFF7A4FF02210820FFF7A0FF0221102003
:10320000FFF79CFF02211820FFF798FF02212020E2
:10321000FFF794FF02212820FFF790FF02213020C2
:10322000FFF78CFF02213820FFF788FF02214020A2
:10323000FFF784FF02214820FFF780FF002010BD28
:10324000012010BD00000A082DE9F04117460E4686
:1032500005460024DFF83C8015E056F82410286865
:1032600000F01AF8092802D00120BDE8F081286892
:1032700056F824100068884201D00220F5E728683B
:10328000001D2860641CBC4202D229684145E4D973
:103290000020EAE7FBFF0B0870B50D46064600F07C
:1032A0002BF8092813D10A4C206820F440702060C4
:1032B000206840F400702060206840F00100206029
:1032C000356000F019F8216821F00101216070BD1E
:1032D000103C024005480068002805DA034804490C
:1032E0000C3801600349016070470000103C024047
:1032F00023016745AB89EFCD08B509208DF80000A3
:10330000FFF752FF8DF800009DF800000128F7D06C
:103310009DF8000008BD00224FF0204310280AD07D
:10332000B0F5807F09D0B0F5805F09D0D3F858019F
:10333000814309D107E0586EFAE7D3F88400F7E734
:10334000D3F8A400F4E7012210467047D0E9001238
:10335000114382686FF01F03C06803EB421242EA18
:10336000402001434FF02040C0F85011704700004A
:10337000F0B50668B100A1F1C041D1F84011CD0B04
:10338000D0E901121143D0E903231A4311434269E2
:10339000046A11438269436A1143C269ED03114310
:1033A0002143194329434FF02045EEB3D5F840613E
:1033B00022436FF30E0633431A43C5F840210268D7
:1033C0009200A2F1C042C2F840116FF00F02130147
:1033D00014030168160441B38900A1F1C041D1F87A
:1033E000481101F0704C816AD1E9007E02EB0E12A7
:1033F0007F1E17438A6803EB022217430A8A04EBF5
:1034000002421743D5F8482147EA0C0702F07043FF
:10341000CA68898A120306EB0151A2F580520A4359
:103420001A43C5F8482101E007E009E00068800080
:10343000A0F1C040C0F84871F0BDC5F84011C4E724
:10344000D5F84811806A01F07047D0E9001C02EB02
:103450000C12491E1143826803EB022211430B4BED
:10346000C26803EB02321143028A04EB02421143A9
:10347000828A007E06EB025211431A0302EB0060BF
:1034800001433943C5F84811F0BD000000F0FFFFCB
:103490004FF02041D1F8542142EA4000C1F85401D4
:1034A000704700002DE9F0472DED068B88B0002411
:1034B00045A14848FCF796FE4648FDF747FA464DB9
:1034C0004FF47F0A1428A8705CD1FDF742FAC10AB4
:1034D000C5E90801C0F30A00A8628821504601F03E
:1034E0007FF83EA26421822000F0C8FC00F010F9B1
:1034F000002847D14FF000689FED3E9B9FED3FAB0A
:103500004FF47F494FF40066334A31461C323D4840
:10351000FDF7ABF9A870A88B3A49820808EBC420E4
:1035200000F0F0F895ED080A0746B8EE400A10EEF4
:10353000100AFDF72DF841EC180B601CFCF7E3FFB7
:1035400053EC192BFCF7FEFE53EC182BFCF76CFF29
:1035500053EC1A2BFCF7F6FEFDF701F8C2B22AA1D4
:10356000684603F07BFB8821484601F039F86A463B
:103570007021A02000F082FCA02124A2084600F0C7
:103580007DFC4FB18821504601F02AF820A2642129
:10359000822000F073FC11E0641CA88BA4B2B0423E
:1035A000B2D08821484601F01BF81EA26421BE203B
:1035B00000F064FC0020FDF78DF9A87008B0002031
:1035C000BDEC068BBDE8F0875550444154452E4272
:1035D000494E00006002002014000020D5FDD4DA1E
:1035E000C9FDBCB62CC7EBCEF0B9D8B1D5B5E7D480
:1035F000B4000000000000000000A0400000000037
:1036000000005940380B0020256400002500000010
:10361000CEB4BCECB2E2B5BDC9FDBCB6CEC4BCFEF6
:1036200000000000C9FDBCB6CDEAB3C92CC7EBD67B
:10363000D8C6F4D2C7C6F700F0B5002201274FF074
:10364000030C0B6807FA02F52B40AB422CD106683D
:1036500053000CFA03F4A64306600E79D0F800E09C
:103660009E4046EA0E0606600E79012E01D0022E1B
:1036700012D18668A64386604E79D0F808E09E4055
:1036800046EA0E0686604668AE43466045688E7917
:103690009640B6B235434560C568A543C560CC7950
:1036A0009C40C3681C43C460521C102AC9D3F0BD9F
:1036B0004B07DB0E9A40C90810B500EB8100016A88
:1036C0000F249C40A1430162016A1143016210BDB5
:1036D0000246002012690A4200D00120704741834F
:1036E000704701837047000002210548034A8C029D
:1036F0008314118004800380FBE700001A04024059
:10370000181C024007B592B26846FFF79DFD0EBD3A
:1037100010B5FFF7DFFDF320FFF70AFD3820FFF7B4
:1037200061FDC0B210BD000070B5C820FDF79DFD61
:10373000C820FDF79AFDC820FDF797FD134C102116
:103740002046FFF7CEFF20211148FFF7CAFF0620D1
:1037500003F0BCFF552003F0DDFF03F0ADFF1025A3
:103760002583AA280DD1152003F0B0FF062003F011
:10377000D1FF1420FDF779FD03F09EFF258351282A
:1037800001D0FA2070BD142070BD0000000002407E
:10379000001C024001B5009801E0401E0090002886
:1037A000FBD108BD7CB501214FF4C27001F07AF85D
:1037B0004FF40070009001208DF8040000248DF873
:1037C00006408DF80700154D8DF8054069462846DE
:1037D000FFF732FF2915009169462846FFF72CFFB5
:1037E0002021009169460E48FFF726FFE81400905B
:1037F00069462846FFF720FF0A4E022569463046F3
:103800000095FFF719FF082000908DF804408DF80F
:10381000075069463046FFF70FFF7CBD001C024091
:1038200000080240002002402DE9FC5F01278DF8CE
:1038300004704FF0000B8DF806B04FF400748DF853
:10384000077000948DF805706946F948FFF7F4FE9B
:1038500065006946F6480095FFF7EEFEDFF8D49361
:103860004FF0200A69464846CDF800A0FFF7E4FE75
:10387000A6006946EE480096FFF7DEFE4FF002080C
:103880006946ED48CDF80080FFF7D6FE082000908D
:1038900000208DF8040002208DF807006946E648F4
:1038A000FFF7CAFE2146E248FFF71BFF2946E04822
:1038B000FFF717FF20214846FFF713FF3146DC488A
:1038C000FFF70FFF0221DC48FFF70BFF0821DA4862
:1038D000FFF7FEFED94C00287ED02E4600958DF8CD
:1038E00004B045468DF80780DFF8448369464046BA
:1038F000FFF7A2FE2020009069464846FFF79CFE95
:103900004FF4006969464046CDF80090FFF794FEF9
:10391000DFF824A3694650460095FFF78DFEFF208F
:10392000FFF738FF08215046FFF7D2FE78B3314643
:103930004046FFF7CDFE30B131464046FFF7C8FEA6
:1039400028B3677230E02021BA48FFF7C1FE30B1DA
:103950002021B848FFF7BCFEC8B1657224E0494693
:103960004046FFF7B5FE30B149464046FFF7B0FE8E
:1039700068B1032017E002215046FFF7A9FE38B1D5
:1039800002215046FFF7A4FE08B104200BE00BE033
:1039900008215046FFF79CFE30B108215046FFF742
:1039A00097FE08B10520607201208DF80400002701
:1039B0008DF806708DF807004FF4806600968DF83C
:1039C000057069464046FFF737FE31464046FFF72F
:1039D00088FE7610009600E0E6E18DF80470AB46B4
:1039E0002F468DF8075069464046FFF725FE2020F8
:1039F000009069468F48FFF71FFE4D4669464046D6
:103A0000CDF80090FFF718FED1460097694657465B
:103A10004846FFF711FEFF20FFF7BCFE082138469D
:103A2000FFF756FE98B3314647464046FFF750FE33
:103A300030B131463846FFF74BFE40B3062032E046
:103A4000DFF8F0A120215046FFF742FE30B12021DF
:103A50005046FFF73DFED0B1072024E02946384606
:103A6000FFF736FE30B129463846FFF731FE70B118
:103A7000082018E002214F464846FFF729FE38B1DA
:103A800002213846FFF724FE08B109200BE00BE0C5
:103A900008213846FFF71CFE30B108213846FFF7F1
:103AA00017FE08B10A2060722020009001208DF8D6
:103AB000040000278DF806708DF80700DFF874A168
:103AC0008DF8057069465046FFF7B6FD2021504637
:103AD000FFF707FE8DF80470B24600965F468DF83A
:103AE00007B069464046FFF7A7FD4FF48066694678
:103AF00040460096FFF7A0FD694640460095FFF757
:103B00009BFD009769464F464846FFF795FDFF200D
:103B1000FFF740FE08213846FFF7DAFD88B351462B
:103B200047464046FFF7D4FD30B151463846FFF7CF
:103B3000CFFD30B30B2030E031463846FFF7C8FDEB
:103B400030B131463846FFF7C3FDD0B10C2024E038
:103B500029463846FFF7BCFD30B129463846FFF705
:103B6000B7FD70B10D2018E002214F464846FFF71F
:103B7000AFFD38B102213846FFF7AAFD08B10E208B
:103B80000BE00BE008213846FFF7A2FD30B1082119
:103B90003846FFF79DFD08B10F20607201208DF8B7
:103BA000040000278DF806708DF807004FF40065BB
:103BB00000958DF8057069464046FFF73DFD2946A2
:103BC0004046FFF78EFD8DF804705546CDF800A0F5
:103BD0005F468DF807B069464046FFF72DFDB246B7
:103BE000694640460096FFF727FD2020DFF844B0E5
:103BF000009069465846FFF71FFD69464E46484605
:103C00000097FFF719FDFF20FFF7C4FD082130469C
:103C1000FFF75EFDC0B329464046FFF759FD78B176
:103C200029464046FFF754FD70B3102038E00000ED
:103C3000001C0240000802400020024088000020D2
:103C400051464046FFF744FD30B151464046FFF72C
:103C50003FFDC8B1112023E020215846FFF738FD71
:103C600030B120215846FFF733FD68B1122017E02C
:103C700002213046FFF72CFD38B102213046FFF714
:103C800027FD08B113200BE00BE008213046FFF7B9
:103C90001FFD30B108213046FFF71AFD08B114208E
:103CA00060720220009001208DF8040000278DF83A
:103CB00006708DF807008DF8057069463B48FFF7E0
:103CC000BBFC02213948FFF70CFD8DF8047002207F
:103CD000A94600958DF80700694645464046FFF71E
:103CE000ABFC564669462846CDF800A0FFF7A4FC79
:103CF0002020009069465846FFF79EFC4FF400676D
:103D0000694628460097FFF797FCFF20FFF742FD22
:103D100008212648FFF7DCFC00280CD0494628463D
:103D2000FFF7D6FC48B149462846FFF7D1FC0028EA
:103D300001D015206072BDE8FC9F31462846FFF790
:103D4000C7FC38B131462846FFF7C2FC0028F2D044
:103D50001620EFE720215E465846FFF7B9FC38B140
:103D600020213046FFF7B4FC0028E4D01720E1E71B
:103D700039462846FFF7ACFC38B139462846FFF7EC
:103D8000A7FC0028D7D01820D4E7084D08212846E2
:103D9000FFF79EFC0028CED008212846FFF798FCAC
:103DA0000028C8D01920C5E7FF20C3E70020024043
:103DB00070B58AB0C0F30745C0F30724C6B2FDF75B
:103DC000DBF94FF44030009001200394CDE9010667
:103DD0000F20CDE904500B48C068069000200790E2
:103DE0004FF4F07008904FF4207009906846FDF78A
:103DF000D9F9FDF731FA0220FDF7CAF90028FAD007
:103E00000AB070BD5400002030B4203AD4B2084A41
:103E10009369DA889D881B686A436243D41702EB72
:103E20005472D21030BC03EB420200F05DB80000C7
:103E3000540000202DE9F04116460F46804600242C
:103E40000D4D0FE032788A420AD105EB40027178BD
:103E50005078814204D139464046921C00F080F8E7
:103E6000641CA4B204EB840000EB441015F810109D
:103E70008029E7D8BDE8F081F4880C082DE9F041ED
:103E800015460C468046154E4FF4207719E0802ADF
:103E90000BD21348B06121464046FFF7B5FFB06929
:103EA0006D1C8088204484B20BE00E48B0612A4625
:103EB00021464046FFF7BEFFB069AD1C8088204414
:103EC00084B2BC4208D22A78002A05D0B069808822
:103ED000011989B28142DAD2BDE8F0815400002094
:103EE00078000020800000202DE9F0430024C0EB82
:103EF0000010C30119488146C768866925E0002083
:103F000012F8145085402D0602D5D8F804C001E0FF
:103F1000D8F808C001EB41053D4425F803C01D4415
:103F20004FEA1C4C85F802C0401C491C0828E7D306
:103F3000B088651C4FEAD00CB5FBFCF80CFB18559B
:103F400015B9C0F520700144641CB588F088ED08EF
:103F50006843C846A042D2D8BDE8F0835400002090
:103F60002DE9F0430024C0EB0010C301194881463D
:103F7000C768866924E00020155D85402D0602D5BE
:103F8000D8F804C001E0D8F808C001EB41053D4471
:103F900025F803C01D444FEA1C4C85F802C0401CA4
:103FA000491C0828E8D3B088651C4FEAD00CB5FB43
:103FB000FCF80CFB185515B9C0F520700144641CC1
:103FC000B588F088ED086843C846A042D3D8BDE85C
:103FD000F0830000540000202DE9F0478246504253
:103FE0000023234F022202EB40047A68C2F3074603
:103FF00095B2FA68CF18AAEB000907EB870709EB1F
:10400000C71C0CEB4C0C22F80C5094448CF802604A
:104010000AEB000808EBC71707EB4707D55317440F
:10402000BE70CF1A07EB870C08EBCC1707EB4707DE
:10403000D5531744BE7009EBCC1707EB4707D55390
:104040001744BE7027469C4208DC5B1C07EB430408
:10405000641CD84202D1874200DC0027874203DD7E
:10406000401C04EB4004641C0028C3DDBDE8F0875D
:10407000540000202DE9F0431446174A994601EBFD
:104080008101536800EBC110D16800EB40008BB098
:10409000C3F30748DDB2C3F307264718FDF76CF8F2
:1040A0004FF44030009001AA012082E861010F2006
:1040B000CDE90507C4F520700994CDE907096846E4
:1040C000FDF770F8FDF7C8F80220FDF761F8002849
:1040D000FAD00BB0BDE8F083540000202DE9F04386
:1040E00001EB810100EBC11000EB40011A481446BE
:1040F0008BB0C2684068994601EB0208C0F30746DE
:10410000C5B2C0F30727FDF737F84FF440300090F1
:10411000012001AACDF8188082E8A1000F21CDE985
:104120000461B9F1000F11D0CDE9084040F27F21C0
:1041300007916846FDF736F8FDF78EF80220FDF787
:1041400027F80028FAD00BB0BDE8F08300210994CD
:10415000CDE90710EDE70000540000202DE9FC4FE9
:1041600084460026A2EB0C000F46002801DCACEBD5
:10417000020001B2D81B002800DCF81A00B20FFAC6
:104180008CF53CB24FF0FF38624503D34FF0010B82
:10419000DA4601E0C346DA46BB4203D34FF00109D9
:1041A000C84600E0C14681424FF0000208DB93465A
:1041B000904601EBD1720F465310CDE9000122E089
:1041C0009246CDE9001000EBD0724FF0000907468F
:1041D000531018E02146284600F040FB0098184490
:1041E00003B2BB4207DBD81B03B205EB0B0005B2E1
:1041F00004EB090004B205EB0A0005B204EB080069
:10420000761C04B236B201988642E3DDBDE8FC8F2D
:104210002DE9FC5F012140F2FF1000F043FB042078
:10422000009002208DF805008DF8040000208DF824
:104230000600DFF870828DF8070069464046FFF7F8
:10424000FBF90E2202214046FFF732FA4FF008092F
:1042500069464046CDF80090FFF7EEF90E220321A3
:104260004046FFF725FA4FF48070009069464046BB
:10427000FFF7E2F90E2208214046FFF719FA8A4DAE
:104280000124694628460094FFF7D6F90922002147
:104290002846FFF70DFAE502694684480095FFF7C6
:1042A000CBF90E220B218148FFF702FA4FF4805A16
:1042B00069467E48CDF800A0FFF7BEF90E220C211A
:1042C0007A48FFF7F5F92020009069467848FFF713
:1042D000B3F90E2205217648FFF7EAF94FF0400BBB
:1042E00069467348CDF800B0FFF7A6F90E22062103
:1042F0006F48FFF7DDF96603694640460096FFF711
:104300009BF90E220D214046FFF7D2F9A70269461C
:1043100068480097FFF790F909220A216548FFF7DE
:10432000C7F9E003009069464046FFF785F90E2281
:104330000F214046FFF7BCF969465F480094FFF73C
:104340007BF90E2200215C48FFF7B2F94FF010080C
:1043500069465748CDF80080FFF76EF90E22042118
:104360005348FFF7A5F969465248CDF800A0FFF77A
:1043700063F90E220C214F48FFF79AF9DFF83CA1B0
:1043800069465046CDF800B0FFF756F90E220621D7
:104390005046FFF78DF9694646480095FFF74CF9FE
:1043A0000E220B214348FFF783F969464248CDF8B6
:1043B0000080FFF741F90E2204213F48FFF778F90A
:1043C00069463A48CDF80090FFF736F90E220321EE
:1043D0003648FFF76DF98020009069463548FFF7B1
:1043E0002BF90E2207213348FFF762F9694632485C
:1043F0000097FFF721F90E220A212F48FFF758F9FD
:104400006002009069462C48FFF716F90E22092138
:104410002948FFF74DF90097294F69463846FFF7BD
:104420000BF90E220A213846FFF742F902208DF8D7
:1044300005008DF8044000208DF80600CDF80080BE
:104440008DF8074069465046FFF7F6F810215046B0
:10445000FFF747F902208DF805008DF80440002091
:104460008DF8060000958DF8074069465046FFF725
:10447000E3F802208DF805008DF8044000208DF847
:10448000060000968DF8074069465046FFF7D4F8BD
:1044900029465046FFF723F931465046FFF721F9E8
:1044A000BDE8FC9F001C02400004024000000240E6
:1044B000001002400018024000200240000C0240A0
:1044C0000014024000B501218FB0880600F01AFAEE
:1044D0000121C80500F0E6F9FFF79AFE00F016FC8E
:1044E000012214214FF4D27000F042FA4FF4403010
:1044F00000F02EFA012000F035FA3D2000F00EFA0F
:104500000028FAD0002002900390009001900C90B7
:104510000D900E9009200490012005908F200690A8
:104520000C20079040F20F3008904FF4F67009907D
:1045300040F21F300A904FF403700B90684600F071
:1045400073F8012000F062F80FB000BD10B590B014
:104550009020009040F20F3001900D2002904FF417
:10456000F670039001200490FF20059006900790BC
:10457000089009904FF480600724CDE90A0440F2C6
:1045800083700D90C01E0E9080100F904FF0504021
:104590000C9069460E4800F0A5F80E480C904FF4B8
:1045A000C060CDE90A040A4C69468034204600F018
:1045B00099F8012000F0E2F80121204600F088F887
:1045C000012000F0DBF805490348886110B010BDF8
:1045D0008468014000100ED07000002054000020BC
:1045E000014AC2E90101704754000020054920B189
:1045F0000548C8600120086170474FF05040C8600E
:104600000020F8E75400002000100ED005490028D3
:10461000086802D040F0010001E020F001000860CD
:10462000704700001868014030B5264A13682649D3
:104630000B401360038A146845692C4344EA034421
:104640001460121D13680B401360038B1468C56956
:104650002C4344EA03441460121D13680B4013609A
:10466000038C1468456A2C4344EA03441460121D09
:1046700013680B401360018D1368C46A234343EA37
:1046800001431360111D0A68104B1A400A60D0E9FB
:1046900000231A43D0E9023423431A430B681A4318
:1046A0000A60416B0A02018E0B04064924310C6832
:1046B00004F07F440C600C68806B134304431C437C
:1046C0000C6030BD0868014000F800F08F88FE0FD4
:1046D0000029016802D041F0010101E021F001014F
:1046E0000160704770B58A88436803F47043436083
:1046F0000B6843EA024343608A89836803F470438A
:1047000083608B6843EA02438360026922F00702F8
:1047100002610A690261CA6991F8243014020A8CA4
:1047200085691204002686618D6942EA0362254389
:1047300015438561426922F0FF0242614A69426184
:10474000C26940F207739A43C261D1E90A231A434E
:10475000C261826A86620A6B82620A8FC36A03F050
:10476000E023C3624B6B43EA0243C362026B6FF305
:104770000A020263C96B016370BD00000149086051
:104780007047000024680140FEE7704730B50F23F2
:10479000C27801780125FAB1144A126801F1E021CA
:1047A00002F4E062C2F5E062C2F30722C2F104043F
:1047B000D3404278A24084781C401443220181F8FF
:1047C0000024007800F01F018D404009800000F1B6
:1047D000E020C0F8005130BD01F01F0085404809BD
:1047E000800000F1E020C0F8805130BD0CED00E009
:1047F0000249084302490860704700000000FA05BA
:104800000CED00E0024A114001430248016070478C
:1048100080FFFF1F08ED00E0014801F0FDB9000036
:1048200098040020014801F093B90000980400208A
:10483000014801F0C9B9000098040020014801F0C6
:10484000EBB90000980400207047000002490B20DB
:104850000870FEF70DBB000092000020B0F5207F2D
:1048600011D800290FDBB1F5F07F0CDC01EB8101E1
:1048700000EBC110044900EB4000CA6849681044CD
:104880000180090C817070475400002010B5202170
:104890000348FEF71DFF08B1002010BD012010BD28
:1048A000001C0240044A0029116801D0014300E0C5
:1048B000814311607047000030380240044A0029EB
:1048C000116801D0014300E081431160704700008E
:1048D00010380240044A0029116801D0014300E069
:1048E000814311607047000038380240044A0029B3
:1048F000116801D0014300E081431160704700005E
:1049000040380240044A0029116801D0014300E008
:104910008143116070470000443802400246002085
:10492000510901290BD002290CD00849096802F06D
:104930001F02012393400B4200D00120704703491E
:104940007439F3E70149091FF0E7000074380240A9
:10495000034A116821F4403101431160704700009F
:104960008C38024001490867704700000000474248
:10497000800140EA0160024940EA02700860704725
:10498000883802402DE9FC5F0121FC20FFF78AFFF7
:1049900002208DF804008DF8050000208DF8060037
:1049A0008DF80700012000906946D248FEF744FECA
:1049B0000C220021CF48FEF77BFE022000906946C2
:1049C000CC48FEF739FE0C220121CA48FEF770FEE2
:1049D000042000906946C748FEF72EFE0C220221F3
:1049E000C448FEF765FE082000906946C148FEF7FE
:1049F00023FE0C220321BF48FEF75AFE4FF0100899
:104A00006946BC48CDF80080FEF716FE0C22042152
:104A1000B848FEF74DFE202000906946B548FEF7E5
:104A20000BFE0C220521B348FEF742FE4FF48059DD
:104A30006946B048CDF80090FEF7FEFD0C22114605
:104A4000AC48FEF735FE4FF4005000906946A94887
:104A5000FEF7F2FD0C220D21A648FEF729FE4FF4C9
:104A600080456946A3480095FEF7E6FD0C220E211D
:104A7000A048FEF71DFE6C0069469E480094FEF7B4
:104A8000DBFD0C220F219B48FEF712FE0120009057
:104A900069469948FEF7D0FD0C2200219648FEF7A2
:104AA00007FE0220009069469348FEF7C5FD0C22E0
:104AB00001219148FEF7FCFD694690480095FEF7FC
:104AC000BBFD0C220E218D48FEF7F2FD69468B4896
:104AD0000094FEF7B1FD0C220F218848FEF7E8FD97
:104AE0000120009069468548FEF7A6FD0C220021B2
:104AF0008248FEF7DDFD0220009069467F48FEF700
:104B00009BFD0C2201217D48FEF7D2FD8020009004
:104B100069467B48FEF790FD0C2207217848FEF796
:104B2000C7FDE611694676480096FEF785FD0C2222
:104B300008217348FEF7BCFDA7116946704800972D
:104B4000FEF77AFD0C2209216D48FEF7B1FD4FF406
:104B5000806A69466A48CDF800A0FEF76DFD0C2218
:104B60000A216748FEF7A4FD4FF4006B69466448CC
:104B7000CDF800B0FEF760FD0C220B216048FEF777
:104B800097FD69465E48CDF80090FEF755FD0C2272
:104B900011465B48FEF78CFDA0100090694658480E
:104BA000FEF74AFD0C220D215548FEF781FD6946AE
:104BB00053480095FEF740FD0C220E215048FEF7A9
:104BC00077FD69464E480094FEF736FD0C220F2112
:104BD0004B48FEF76DFD694648480096FEF72CFDF0
:104BE0000C2208214548FEF763FD694643480097BB
:104BF000FEF722FD0C2209214048FEF759FD6946C7
:104C00003E48CDF800A0FEF717FD0C220A213B48D4
:104C1000FEF74EFD40203B4D009069462846FEF7CA
:104C20000BFD0C2206212846FEF742FD694632485C
:104C3000CDF80080FEF700FD0C2204212E48FEF77F
:104C400037FD2020009069462B48FEF7F5FC0C222A
:104C500005212948FEF72CFD01202B4F00906946C5
:104C60003846FEF7E9FC0C2200213846FEF720FD0D
:104C700069462048CDF800B0FEF7DEFC0C220B217F
:104C80001C48FEF715FD69461B480094FEF7D4FC4E
:104C90000C220F211848FEF70BFD694616480096B6
:104CA000FEF7CAFC0C2208211348FEF701FD802004
:104CB000009069462846FEF7BFFC0C2207212846D3
:104CC000FEF7F6FC0220009069460D48FEF7B4FCA2
:104CD0000C2201210A48FEF7EBFC012000906946F6
:104CE0000748FEF7A9FC0C2200210548FEF7E0FC6E
:104CF000BDE8FC9F0014024000180240000C024076
:104D000000100240001C02400008024000B593B0B1
:104D1000FFF738FE01210846FFF7DCFD04210220E1
:104D200007220D91CDE90B02CDE90E2010901190D4
:104D3000012000900020CDE90101102103914021C4
:104D400004914FF4C071CDE905104FF44C41CDE909
:104D500007104FF4005009900BA80A906846FEF720
:104D600007FB00F003F813B000BD0000F0B585B0FC
:104D7000012408250026CDE90246CDE90045202181
:104D80000120FEF7C8FA0028F9D16846FEF7DEFADE
:104D90000A2022480490401E0490FCD10220CDE954
:104DA0000005CDE9024620210120FEF7B4FA0028D3
:104DB000F9D16846FEF7CAFA0320042703968DE866
:104DC000A10020210120FEF7A6FA0028F9D16846AB
:104DD000FEF7BCFA20210120FEF79DFA0028F9D148
:104DE0006846FEF7B3FA40F23120CDE90240CDE942
:104DF000007520210120FEF78EFA0028F9D16846BF
:104E0000FEF7A4FA40F26A50FEF742FB202101208F
:104E1000FEF781FA0028F9D105B0F0BD40420F003D
:104E20000029018802D041F0400101E021F0400159
:104E3000018070470246002012890A4200D00120FA
:104E40007047808970478181704730B502884C88EF
:104E500002F441530A88CD8822438C882C43224394
:104E60000C8922434C8922438C892243CC892243DA
:104E70001A430280828B22F400628283098A0182B3
:104E800030BD000010B5014602A001F0D7FE0020A1
:104E900010BD00003C3C2D464C4153482D4552521C
:104EA0004F522D3E3E2053504920B5C8B4FDB3ACFF
:104EB000CAB1216572726F72436F6465203D20250F
:104EC000640A00002DE9F041154C4FF48055074667
:104ED0002560144E03E02068411E216010D302219A
:104EE0003046FFF7A7FF0028F5D039463046FFF7D8
:104EF000AAFF256009E02168481E206005D2012034
:104F0000FFF7C0FFC0B2BDE8F08101213046FFF7D6
:104F100091FF0028EFD03046FFF793FFF2E7000043
:104F2000F000002000300140704700001CB5002157
:104F30002E4A00910191106840F4803010604FF4C7
:104F4000A043106800F4003001900098401C0090CD
:104F5000019810B900989842F3D11068800342D5A7
:104F60000120019021484030016841F080510160EA
:104F70001F49086840F4404008601C480830036836
:104F80000360036843F400430360036843F4A053E1
:104F90000360041F174B2360136843F08073136092
:104FA00013689B01FCD50A6842F480320A604A68A3
:104FB000D203FCD50A6842F400320A604A689203C0
:104FC000FCD50D4A40F205711160016821F0030122
:104FD0000160016841F0020101600168C1F38101D3
:104FE0000229FAD11CBD01911CBD0000003802400D
:104FF0000070004019544007003C02407047000018
:105000000B484FF47A710068B0FBF1F0401EB0F12C
:10501000807F0BD24FF0E0214861064AF02082F8F1
:10502000140D00208861072008617047FEE700002A
:10503000000000200FE000E0124810B5016841F4C4
:10504000700101601048016841F0010101600E4AE1
:1050500000210832116002680C4B1A400260031DE7
:105060000B4A1A60026822F48022026006480C3063
:105070000160FFF75BFF03494FF000608039086073
:1050800010BD000088ED00E000380240FFFFF6FE92
:105090001030002410B5094C0121204600F05CF8C6
:1050A000002809D0FEF7C0FB00F0C0F92046BDE89B
:1050B0001040012100F043B810BD00000010004076
:1050C00070B5054688B001210220FFF71BFC3F2088
:1050D000069040F20770ADF814000024154EADF8AC
:1050E0001C40ADF8164005A9304600F0EFF86020EE
:1050F000ADF800000120ADF802000002ADF810008C
:10510000ADF80C400295ADF80E40ADF81240082104
:10511000304600F065F86946304600F031F8082165
:10512000304600F05DF80121304600F00BF808B081
:1051300070BD000000040140C94301827047C943AB
:10514000018270470029018802D041F0010101E08D
:1051500021F001010180704702460020138A9289E4
:105160000B4202EA010202D0002A00D0012070475F
:10517000002A828901D00A4300E08A438281704775
:1051800030B5028C22F001020284028C8388048BE9
:1051900022F0020224F073050C882C438D891543FC
:1051A0004A882A430C4DA84202D00C4DA8420DD18A
:1051B00022F00805CA8923F440732A4322F004052B
:1051C0008A882A430D8A1D434B8A2B43838004839C
:1051D00089684163028430BD000001400004014041
:1051E000028B22F008020A430283704770B5028CDA
:1051F00022F480720284028C8388848B0D8824F0D0
:10520000730425438E894FF6FF7422F4007204EA7A
:10521000062616434A8804EA02223243104EB04260
:1052200002D0104EB04215D122F40066CA8923F490
:10523000405304EA0222324322F480668A8804EA58
:10524000022232430E8A04EA06161E434B8A04EAFF
:1052500003133343838085838968C163028470BDEF
:10526000000001400004014070B5054688B00121EE
:105270000820FFF73BFB6320069042F22730ADF891
:1052800014000024104EADF81C40ADF8164005A9DE
:10529000304600F01BF86020ADF800000120ADF8AA
:1052A00002006D1E0295ADF80C4069463046FFF7CE
:1052B0009DFF08213046FFF793FF01213046FFF79D
:1052C00041FF08B070BD0000000C004030B50288FE
:1052D000164C174DA0420DD0A8420BD0B0F1804F14
:1052E00008D0144B984205D0134B984202D0134B70
:1052F000984203D122F070034A881A43104B984217
:1053000006D0104B984203D022F440730A891A4306
:1053100002804A68C2620A880285A04201D0A8427F
:1053200001D1897A01860121818230BD00000140CE
:10533000000401400004004000080040000C004050
:105340000010004000140040FEB54FF4E060FFF78D
:105350004FFA36208DF8000001208DF8010003255A
:105360008DF802508DF803006846FFF70FFA01210F
:105370001020FFF7BBFA6320019042F22730274C40
:10538000ADF8000069462046FFF7A0FF0121204646
:10539000FFF7D2FE012211462046FFF7E9FE012168
:1053A0002046FFF7CFFE01210802FFF77BFA1C4FD2
:1053B000032205213846FEF77BF902268DF80460AA
:1053C000002420208DF8064000908DF807408DF8CD
:1053D000055069463846FEF72FF92020FFF770FE8A
:1053E00001218020FFF75EFA0E4F02220C21384681
:1053F000FEF75EF98DF80460F0028DF8064000902B
:105400008DF807408DF8055069463846FEF714F9C7
:1054100005488078BDE8FE40FFF726BF0010004039
:1054200000200240001C0240AC0000202DE9F047A3
:10543000434D444A32272878DFF80C9100F00300EE
:10544000424E02284FF400714FF4005805F10C044D
:10545000104615D2FEF743F941464846FEF741F99A
:1054600040213046FEF73DF980213046FEF737F9FE
:10547000C820FBF7FAFE6088B0FBF7F0E88014E084
:10548000FEF72FF941464846FEF729F940213046FC
:10549000FEF725F980213046FEF723F9C820FBF7F7
:1054A000E4FE2088B0FBF7F0A88028780024401C98
:1054B0002870A878012833D1687805282ED9A888C3
:1054C000052801D82C8110E0FBF71DF89FED201B6B
:1054D00053EC112BFAF736FF9FED1F1B53EC112BEA
:1054E000FAF72AFFFBF71CF82881E888032801D87F
:1054F0006C8115E0FBF707F89FED191B53EC112B9E
:10550000FAF720FF9FED181B53EC112BFAF714FF4D
:10551000FBF706F8C0F5F070688101E0401C687088
:10552000A888052802D9E888032806D8EC70AC7052
:105530006C702C816C81BDE8F0870120A870FAE7BF
:10554000C800002000040240001802400020024071
:105550007B14AE47E1FA2040F6285C8FC2F52E405E
:1055600085EB51B81E85194052B81E85EB5122407B
:105570002DE9F041254C0125E07860B9002108466D
:10558000FFF72EF800214FF4F0734FF42072084615
:10559000FEF770FDE5701E4E40F225573946304645
:1055A00000F047F800281FD03946304600F034F8A4
:1055B000304600F05DF8C0B260702178154B0022D3
:1055C00071B1012914D0022917D00DD9585401F115
:1055D0000101C8B22070A178884205D1257105E08B
:1055E000012803D125701D70BDE8F0812270FBE712
:1055F0000328FBD15870022005E02228F6D19870CC
:105600002720A07003202070EEE700004C0000204F
:1056100000100140381300200A0A01219140C943BB
:10562000018070470246002012880A4200D0012003
:10563000704770B501F01F0501260024C1F3421325
:1056400006FA05F2012B0FD0022B0FD0838A4FEA06
:1056500011210088134206FA01F600EA060001D083
:1056600000B10124204670BD8389F0E7038AEEE78C
:105670008088C0F308007047C1F30801818070473B
:1056800010B5D0F8E42552689047002010BD10B541
:10569000134600240A462146FBF700FB204610BDB6
:1056A00010B5134600240A462146FBF73DFB204671
:1056B00010BD10B504468021FBF71AFB00212046DF
:1056C000FBF716FB2046BDE8104001F02BB870B583
:1056D00005460024052085F811012346224621466F
:1056E0002846FBF7DBFA284601F01CF8204670BD7F
:1056F00010B5C0F83C210223C0F8382180F81131E0
:10570000134600240A462146FBF70EFB204610BD37
:1057100070B505460024042085F811012346224671
:1057200021462846FBF700FB284600F0FBFF2046F9
:1057300070BD000070B5054641B1D5F8E405426979
:105740008AB395F81201032846D047E095F8110175
:10575000002605F58E74022833D1E169A0688142E4
:105760000FD9081AE061E878012803D1D4E90210C2
:105770000844E060A08BE16882B22846FFF790FF02
:105780001FE0216AB1FBF0F200FB121262B9814204
:105790000AD3606A814207D2002211462846FFF7E9
:1057A0007FFF66620DE016E0D5F8E405C16829B117
:1057B00095F81201032801D1284688472846FFF7AB
:1057C00086FF95F81601012808D105480068296967
:1057D000486085F8166101E028469047002070BDBA
:1057E0002401002070B5054641B1D5F8E405826971
:1057F000FAB195F8120103282AD02BE095F811018F
:1058000005F55D74032825D1A168E069884211D9A6
:10581000401AE061E878012802D1E0680844E060BD
:10582000E069884200D3084682B22846E168FFF763
:105830002EFF0FE0D5F8E405016929B195F81201B2
:10584000032801D1284688472846FFF761FF01E079
:1058500028469047002070BD10B50446D0F8E805F2
:1058600040698047012084F81501002010BD10B563
:105870000446D0F8E80580698047D4F8E4050021A3
:10588000426820469047002084F8150110BD0000B2
:1058900038B5044648880D46010A08296AD2DFE86F
:1058A00001F06904142C69695567D4F8EC15A078E7
:1058B0000A68694690470146E888402803D094F872
:1058C0001201012863D108204FE0D4F8E415A07834
:1058D0008A6A694690470146A078012808D1227A51
:1058E000012A05D1D4F8E415CA6A694690470146F1
:1058F00002204870C4F8F01549E0C0B2062839D239
:10590000DFE800F003080D12171CD4F8EC15A0789E
:105910004A6817E0D4F8EC15A0788A6812E0D4F849
:10592000EC15A078CA680DE0D4F8EC15A0780A69E7
:1059300008E0D4F8EC15A0784A6903E0D4F8EC1537
:10594000A0788A6969469047014620E0A07888B926
:10595000D4F8E4158A6A694690471549827B0A7132
:10596000C27B4A71007C88710A20ADF8000012E009
:10597000A07820B129462046FFF79BFE38BDD4F819
:10598000E415CA6A69469047072201464270BDF88D
:1059900000000028F2D0EA88002AEFD080B28242CC
:1059A00000D90246ADF800202046FFF7A1FE38BD21
:1059B0001202002070B5002300281DD004460025E7
:1059C00002E06D1CEDB2641C2678002EF9D1022491
:1059D00004EB45041480CC545B1C0322CA540024FD
:1059E0005B1C06E0CA545B1CDAB28C54521CD3B266
:1059F000401C0278002AF5D170BD10B58121FBF75B
:105A000023F9002010BD0000024901200870002089
:105A1000704700008401002010B504468121FBF787
:105A2000E1F801212046FBF7DDF8002010BD000061
:105A300029200880004870479401002010B50446D2
:105A4000032340228121FBF70BF90323402201218C
:105A50002046FBF705F9002010BD000070B50022BC
:105A60000C78264D134614F060041DD0202C43D131
:105A70004A78022A14D0032A0AD00A2A0CD00B2A08
:105A800003D0FFF716FE022070BD8878A86033E0CF
:105A90001A490122083126E04888000AE8602BE014
:105AA000164901220C311EE04C78062C04D00A2C39
:105AB0001CD00B2C20D11DE04C882225B5EB142FD7
:105AC00006D1CA88212A00D921220C4B393309E09A
:105AD0002125B5EB142F05D1084BCA882233092A9A
